{
  "address": "0x2a8FE05453aDF2c31E1A0CAA4191dB39ffee4D05",
  "abi": [
    {
      "inputs": [
        {
          "internalType": "address",
          "name": "_vrfCoordinator",
          "type": "address"
        },
        {
          "internalType": "address",
          "name": "_linkToken",
          "type": "address"
        },
        {
          "internalType": "bytes32",
          "name": "_keyhash",
          "type": "bytes32"
        },
        {
          "internalType": "uint256",
          "name": "_fee",
          "type": "uint256"
        }
      ],
      "stateMutability": "nonpayable",
      "type": "constructor"
    },
    {
      "anonymous": false,
      "inputs": [
        {
          "indexed": true,
          "internalType": "address",
          "name": "owner",
          "type": "address"
        },
        {
          "indexed": true,
          "internalType": "address",
          "name": "approved",
          "type": "address"
        },
        {
          "indexed": true,
          "internalType": "uint256",
          "name": "tokenId",
          "type": "uint256"
        }
      ],
      "name": "Approval",
      "type": "event"
    },
    {
      "anonymous": false,
      "inputs": [
        {
          "indexed": true,
          "internalType": "address",
          "name": "owner",
          "type": "address"
        },
        {
          "indexed": true,
          "internalType": "address",
          "name": "operator",
          "type": "address"
        },
        {
          "indexed": false,
          "internalType": "bool",
          "name": "approved",
          "type": "bool"
        }
      ],
      "name": "ApprovalForAll",
      "type": "event"
    },
    {
      "anonymous": false,
      "inputs": [
        {
          "indexed": true,
          "internalType": "address",
          "name": "from",
          "type": "address"
        },
        {
          "indexed": true,
          "internalType": "address",
          "name": "to",
          "type": "address"
        },
        {
          "indexed": true,
          "internalType": "uint256",
          "name": "tokenId",
          "type": "uint256"
        }
      ],
      "name": "Transfer",
      "type": "event"
    },
    {
      "anonymous": false,
      "inputs": [
        {
          "indexed": true,
          "internalType": "uint256",
          "name": "tokenId",
          "type": "uint256"
        },
        {
          "indexed": false,
          "internalType": "enum Collectible.Breed",
          "name": "breed",
          "type": "uint8"
        }
      ],
      "name": "breedAssigned",
      "type": "event"
    },
    {
      "anonymous": false,
      "inputs": [
        {
          "indexed": true,
          "internalType": "bytes32",
          "name": "requestId",
          "type": "bytes32"
        },
        {
          "indexed": false,
          "internalType": "address",
          "name": "requester",
          "type": "address"
        }
      ],
      "name": "requestedCollectible",
      "type": "event"
    },
    {
      "inputs": [
        {
          "internalType": "address",
          "name": "to",
          "type": "address"
        },
        {
          "internalType": "uint256",
          "name": "tokenId",
          "type": "uint256"
        }
      ],
      "name": "approve",
      "outputs": [],
      "stateMutability": "nonpayable",
      "type": "function"
    },
    {
      "inputs": [
        {
          "internalType": "address",
          "name": "owner",
          "type": "address"
        }
      ],
      "name": "balanceOf",
      "outputs": [
        {
          "internalType": "uint256",
          "name": "",
          "type": "uint256"
        }
      ],
      "stateMutability": "view",
      "type": "function"
    },
    {
      "inputs": [],
      "name": "baseURI",
      "outputs": [
        {
          "internalType": "string",
          "name": "",
          "type": "string"
        }
      ],
      "stateMutability": "view",
      "type": "function"
    },
    {
      "inputs": [],
      "name": "createCollectible",
      "outputs": [
        {
          "internalType": "bytes32",
          "name": "",
          "type": "bytes32"
        }
      ],
      "stateMutability": "nonpayable",
      "type": "function"
    },
    {
      "inputs": [],
      "name": "fee",
      "outputs": [
        {
          "internalType": "uint256",
          "name": "",
          "type": "uint256"
        }
      ],
      "stateMutability": "view",
      "type": "function"
    },
    {
      "inputs": [
        {
          "internalType": "uint256",
          "name": "tokenId",
          "type": "uint256"
        }
      ],
      "name": "getApproved",
      "outputs": [
        {
          "internalType": "address",
          "name": "",
          "type": "address"
        }
      ],
      "stateMutability": "view",
      "type": "function"
    },
    {
      "inputs": [
        {
          "internalType": "address",
          "name": "owner",
          "type": "address"
        },
        {
          "internalType": "address",
          "name": "operator",
          "type": "address"
        }
      ],
      "name": "isApprovedForAll",
      "outputs": [
        {
          "internalType": "bool",
          "name": "",
          "type": "bool"
        }
      ],
      "stateMutability": "view",
      "type": "function"
    },
    {
      "inputs": [],
      "name": "keyhash",
      "outputs": [
        {
          "internalType": "bytes32",
          "name": "",
          "type": "bytes32"
        }
      ],
      "stateMutability": "view",
      "type": "function"
    },
    {
      "inputs": [],
      "name": "name",
      "outputs": [
        {
          "internalType": "string",
          "name": "",
          "type": "string"
        }
      ],
      "stateMutability": "view",
      "type": "function"
    },
    {
      "inputs": [
        {
          "internalType": "uint256",
          "name": "tokenId",
          "type": "uint256"
        }
      ],
      "name": "ownerOf",
      "outputs": [
        {
          "internalType": "address",
          "name": "",
          "type": "address"
        }
      ],
      "stateMutability": "view",
      "type": "function"
    },
    {
      "inputs": [
        {
          "internalType": "bytes32",
          "name": "requestId",
          "type": "bytes32"
        },
        {
          "internalType": "uint256",
          "name": "randomness",
          "type": "uint256"
        }
      ],
      "name": "rawFulfillRandomness",
      "outputs": [],
      "stateMutability": "nonpayable",
      "type": "function"
    },
    {
      "inputs": [
        {
          "internalType": "bytes32",
          "name": "",
          "type": "bytes32"
        }
      ],
      "name": "requestIdToSender",
      "outputs": [
        {
          "internalType": "address",
          "name": "",
          "type": "address"
        }
      ],
      "stateMutability": "view",
      "type": "function"
    },
    {
      "inputs": [
        {
          "internalType": "address",
          "name": "from",
          "type": "address"
        },
        {
          "internalType": "address",
          "name": "to",
          "type": "address"
        },
        {
          "internalType": "uint256",
          "name": "tokenId",
          "type": "uint256"
        }
      ],
      "name": "safeTransferFrom",
      "outputs": [],
      "stateMutability": "nonpayable",
      "type": "function"
    },
    {
      "inputs": [
        {
          "internalType": "address",
          "name": "from",
          "type": "address"
        },
        {
          "internalType": "address",
          "name": "to",
          "type": "address"
        },
        {
          "internalType": "uint256",
          "name": "tokenId",
          "type": "uint256"
        },
        {
          "internalType": "bytes",
          "name": "_data",
          "type": "bytes"
        }
      ],
      "name": "safeTransferFrom",
      "outputs": [],
      "stateMutability": "nonpayable",
      "type": "function"
    },
    {
      "inputs": [
        {
          "internalType": "address",
          "name": "operator",
          "type": "address"
        },
        {
          "internalType": "bool",
          "name": "approved",
          "type": "bool"
        }
      ],
      "name": "setApprovalForAll",
      "outputs": [],
      "stateMutability": "nonpayable",
      "type": "function"
    },
    {
      "inputs": [
        {
          "internalType": "uint256",
          "name": "tokenId",
          "type": "uint256"
        },
        {
          "internalType": "string",
          "name": "_tokenURI",
          "type": "string"
        }
      ],
      "name": "setTokenURI",
      "outputs": [],
      "stateMutability": "nonpayable",
      "type": "function"
    },
    {
      "inputs": [
        {
          "internalType": "bytes4",
          "name": "interfaceId",
          "type": "bytes4"
        }
      ],
      "name": "supportsInterface",
      "outputs": [
        {
          "internalType": "bool",
          "name": "",
          "type": "bool"
        }
      ],
      "stateMutability": "view",
      "type": "function"
    },
    {
      "inputs": [],
      "name": "symbol",
      "outputs": [
        {
          "internalType": "string",
          "name": "",
          "type": "string"
        }
      ],
      "stateMutability": "view",
      "type": "function"
    },
    {
      "inputs": [
        {
          "internalType": "uint256",
          "name": "index",
          "type": "uint256"
        }
      ],
      "name": "tokenByIndex",
      "outputs": [
        {
          "internalType": "uint256",
          "name": "",
          "type": "uint256"
        }
      ],
      "stateMutability": "view",
      "type": "function"
    },
    {
      "inputs": [],
      "name": "tokenCounter",
      "outputs": [
        {
          "internalType": "uint256",
          "name": "",
          "type": "uint256"
        }
      ],
      "stateMutability": "view",
      "type": "function"
    },
    {
      "inputs": [
        {
          "internalType": "uint256",
          "name": "",
          "type": "uint256"
        }
      ],
      "name": "tokenIdToBreed",
      "outputs": [
        {
          "internalType": "enum Collectible.Breed",
          "name": "",
          "type": "uint8"
        }
      ],
      "stateMutability": "view",
      "type": "function"
    },
    {
      "inputs": [
        {
          "internalType": "address",
          "name": "owner",
          "type": "address"
        },
        {
          "internalType": "uint256",
          "name": "index",
          "type": "uint256"
        }
      ],
      "name": "tokenOfOwnerByIndex",
      "outputs": [
        {
          "internalType": "uint256",
          "name": "",
          "type": "uint256"
        }
      ],
      "stateMutability": "view",
      "type": "function"
    },
    {
      "inputs": [
        {
          "internalType": "uint256",
          "name": "tokenId",
          "type": "uint256"
        }
      ],
      "name": "tokenURI",
      "outputs": [
        {
          "internalType": "string",
          "name": "",
          "type": "string"
        }
      ],
      "stateMutability": "view",
      "type": "function"
    },
    {
      "inputs": [],
      "name": "totalSupply",
      "outputs": [
        {
          "internalType": "uint256",
          "name": "",
          "type": "uint256"
        }
      ],
      "stateMutability": "view",
      "type": "function"
    },
    {
      "inputs": [
        {
          "internalType": "address",
          "name": "from",
          "type": "address"
        },
        {
          "internalType": "address",
          "name": "to",
          "type": "address"
        },
        {
          "internalType": "uint256",
          "name": "tokenId",
          "type": "uint256"
        }
      ],
      "name": "transferFrom",
      "outputs": [],
      "stateMutability": "nonpayable",
      "type": "function"
    }
  ],
  "transactionHash": "0xdea20fe4307cb80029bd002dbd6797e4d340db0efea4d48e94c65092dbe572ae",
  "args": [
    "0x81B9FA940f46d5C21609e9cBa8a418ab432c1618",
    "0x4A9C03fe5e60521EC39544D8E09111664f663D48",
    "0x6c3699283bda56ad74f6b855546325b68d482e983852a7a82979cc4807b641f4",
    "100000000000000000"
  ],
  "numDeployments": 1,
  "solcInputHash": "30bf4924feaf8e96f94a0a2961ecf23e",
  "bytecode": "0x60c06040523480156200001157600080fd5b506040516200380138038062003801833981810160405260808110156200003757600080fd5b810190808051906020019092919080519060200190929190805190602001909291908051906020019092919050505083836040518060400160405280600581526020017f446f6769650000000000000000000000000000000000000000000000000000008152506040518060400160405280600381526020017f444f470000000000000000000000000000000000000000000000000000000000815250620000ec6301ffc9a760e01b620001f860201b60201c565b81600690805190602001906200010492919062000301565b5080600790805190602001906200011d92919062000301565b50620001366380ac58cd60e01b620001f860201b60201c565b6200014e635b5e139f60e01b620001f860201b60201c565b6200016663780e9d6360e01b620001f860201b60201c565b50508173ffffffffffffffffffffffffffffffffffffffff1660a08173ffffffffffffffffffffffffffffffffffffffff1660601b815250508073ffffffffffffffffffffffffffffffffffffffff1660808173ffffffffffffffffffffffffffffffffffffffff1660601b8152505050506000600b8190555081600c8190555080600d8190555050505050620003b7565b63ffffffff60e01b817bffffffffffffffffffffffffffffffffffffffffffffffffffffffff1916141562000295576040517f08c379a000000000000000000000000000000000000000000000000000000000815260040180806020018281038252601c8152602001807f4552433136353a20696e76616c696420696e746572666163652069640000000081525060200191505060405180910390fd5b6001600080837bffffffffffffffffffffffffffffffffffffffffffffffffffffffff19167bffffffffffffffffffffffffffffffffffffffffffffffffffffffff1916815260200190815260200160002060006101000a81548160ff02191690831515021790555050565b828054600181600116156101000203166002900490600052602060002090601f01602090048101928262000339576000855562000385565b82601f106200035457805160ff191683800117855562000385565b8280016001018555821562000385579182015b828111156200038457825182559160200191906001019062000367565b5b50905062000394919062000398565b5090565b5b80821115620003b357600081600090555060010162000399565b5090565b60805160601c60a05160601c61341b620003e6600039806112095280611be8525080611bac525061341b6000f3fe608060405234801561001057600080fd5b50600436106101735760003560e01c80636352211e116100de578063a22cb46511610097578063cbbc3c2811610071578063cbbc3c28146109e5578063d082e38114610a32578063ddca3f4314610a50578063e985e9c514610a6e57610173565b8063a22cb465146107e9578063b88d4fde14610839578063c87b56dd1461093e57610173565b80636352211e146105dd57806369ebe78e146106355780636c0360eb1461065357806370a08231146106d657806394985ddd1461072e57806395d89b411461076657610173565b80631e661710116101305780631e661710146103e7578063219c0eee1461040557806323b872dd1461045d5780632f745c59146104cb57806342842e0e1461052d5780634f6ccce71461059b57610173565b806301ffc9a71461017857806306fdde03146101db578063081812fc1461025e578063095ea7b3146102b6578063162094c41461030457806318160ddd146103c9575b600080fd5b6101c36004803603602081101561018e57600080fd5b8101908080357bffffffffffffffffffffffffffffffffffffffffffffffffffffffff19169060200190929190505050610ae8565b60405180821515815260200191505060405180910390f35b6101e3610b4f565b6040518080602001828103825283818151815260200191508051906020019080838360005b83811015610223578082015181840152602081019050610208565b50505050905090810190601f1680156102505780820380516001836020036101000a031916815260200191505b509250505060405180910390f35b61028a6004803603602081101561027457600080fd5b8101908080359060200190929190505050610bf1565b604051808273ffffffffffffffffffffffffffffffffffffffff16815260200191505060405180910390f35b610302600480360360408110156102cc57600080fd5b81019080803573ffffffffffffffffffffffffffffffffffffffff16906020019092919080359060200190929190505050610c8c565b005b6103c76004803603604081101561031a57600080fd5b81019080803590602001909291908035906020019064010000000081111561034157600080fd5b82018360208201111561035357600080fd5b8035906020019184600183028401116401000000008311171561037557600080fd5b91908080601f016020809104026020016040519081016040528093929190818152602001838380828437600081840152601f19601f820116905080830192505050505050509192919290505050610dd0565b005b6103d1610e44565b6040518082815260200191505060405180910390f35b6103ef610e55565b6040518082815260200191505060405180910390f35b6104316004803603602081101561041b57600080fd5b8101908080359060200190929190505050610f0c565b604051808273ffffffffffffffffffffffffffffffffffffffff16815260200191505060405180910390f35b6104c96004803603606081101561047357600080fd5b81019080803573ffffffffffffffffffffffffffffffffffffffff169060200190929190803573ffffffffffffffffffffffffffffffffffffffff16906020019092919080359060200190929190505050610f3f565b005b610517600480360360408110156104e157600080fd5b81019080803573ffffffffffffffffffffffffffffffffffffffff16906020019092919080359060200190929190505050610fb5565b6040518082815260200191505060405180910390f35b6105996004803603606081101561054357600080fd5b81019080803573ffffffffffffffffffffffffffffffffffffffff169060200190929190803573ffffffffffffffffffffffffffffffffffffffff16906020019092919080359060200190929190505050611010565b005b6105c7600480360360208110156105b157600080fd5b8101908080359060200190929190505050611030565b6040518082815260200191505060405180910390f35b610609600480360360208110156105f357600080fd5b8101908080359060200190929190505050611053565b604051808273ffffffffffffffffffffffffffffffffffffffff16815260200191505060405180910390f35b61063d61108a565b6040518082815260200191505060405180910390f35b61065b611090565b6040518080602001828103825283818151815260200191508051906020019080838360005b8381101561069b578082015181840152602081019050610680565b50505050905090810190601f1680156106c85780820380516001836020036101000a031916815260200191505b509250505060405180910390f35b610718600480360360208110156106ec57600080fd5b81019080803573ffffffffffffffffffffffffffffffffffffffff169060200190929190505050611132565b6040518082815260200191505060405180910390f35b6107646004803603604081101561074457600080fd5b810190808035906020019092919080359060200190929190505050611207565b005b61076e6112d6565b6040518080602001828103825283818151815260200191508051906020019080838360005b838110156107ae578082015181840152602081019050610793565b50505050905090810190601f1680156107db5780820380516001836020036101000a031916815260200191505b509250505060405180910390f35b610837600480360360408110156107ff57600080fd5b81019080803573ffffffffffffffffffffffffffffffffffffffff169060200190929190803515159060200190929190505050611378565b005b61093c6004803603608081101561084f57600080fd5b81019080803573ffffffffffffffffffffffffffffffffffffffff169060200190929190803573ffffffffffffffffffffffffffffffffffffffff16906020019092919080359060200190929190803590602001906401000000008111156108b657600080fd5b8201836020820111156108c857600080fd5b803590602001918460018302840111640100000000831117156108ea57600080fd5b91908080601f016020809104026020016040519081016040528093929190818152602001838380828437600081840152601f19601f82011690508083019250505050505050919291929050505061152e565b005b61096a6004803603602081101561095457600080fd5b81019080803590602001909291905050506115a6565b6040518080602001828103825283818151815260200191508051906020019080838360005b838110156109aa57808201518184015260208101905061098f565b50505050905090810190601f1680156109d75780820380516001836020036101000a031916815260200191505b509250505060405180910390f35b610a11600480360360208110156109fb57600080fd5b8101908080359060200190929190505050611877565b60405180826002811115610a2157fe5b815260200191505060405180910390f35b610a3a611897565b6040518082815260200191505060405180910390f35b610a5861189d565b6040518082815260200191505060405180910390f35b610ad060048036036040811015610a8457600080fd5b81019080803573ffffffffffffffffffffffffffffffffffffffff169060200190929190803573ffffffffffffffffffffffffffffffffffffffff1690602001909291905050506118a3565b60405180821515815260200191505060405180910390f35b6000806000837bffffffffffffffffffffffffffffffffffffffffffffffffffffffff19167bffffffffffffffffffffffffffffffffffffffffffffffffffffffff1916815260200190815260200160002060009054906101000a900460ff169050919050565b606060068054600181600116156101000203166002900480601f016020809104026020016040519081016040528092919081815260200182805460018160011615610100020316600290048015610be75780601f10610bbc57610100808354040283529160200191610be7565b820191906000526020600020905b815481529060010190602001808311610bca57829003601f168201915b5050505050905090565b6000610bfc82611937565b610c51576040517f08c379a000000000000000000000000000000000000000000000000000000000815260040180806020018281038252602c8152602001806132e4602c913960400191505060405180910390fd5b6004600083815260200190815260200160002060009054906101000a900473ffffffffffffffffffffffffffffffffffffffff169050919050565b6000610c9782611053565b90508073ffffffffffffffffffffffffffffffffffffffff168373ffffffffffffffffffffffffffffffffffffffff161415610d1e576040517f08c379a00000000000000000000000000000000000000000000000000000000081526004018080602001828103825260218152602001806133946021913960400191505060405180910390fd5b8073ffffffffffffffffffffffffffffffffffffffff16610d3d611954565b73ffffffffffffffffffffffffffffffffffffffff161480610d6c5750610d6b81610d66611954565b6118a3565b5b610dc1576040517f08c379a00000000000000000000000000000000000000000000000000000000081526004018080602001828103825260388152602001806132376038913960400191505060405180910390fd5b610dcb838361195c565b505050565b610de1610ddb611954565b83611a15565b610e36576040517f08c379a000000000000000000000000000000000000000000000000000000000815260040180806020018281038252602781526020018061319a6027913960400191505060405180910390fd5b610e408282611b09565b5050565b6000610e506002611b93565b905090565b600080610e66600c54600d54611ba8565b905033600f600083815260200190815260200160002060006101000a81548173ffffffffffffffffffffffffffffffffffffffff021916908373ffffffffffffffffffffffffffffffffffffffff160217905550807fb5fa0f3417a8c4fbcf706f9efe0965a50e33be62f783af4d7d7c44f46213498a33604051808273ffffffffffffffffffffffffffffffffffffffff16815260200191505060405180910390a25090565b600f6020528060005260406000206000915054906101000a900473ffffffffffffffffffffffffffffffffffffffff1681565b610f50610f4a611954565b82611a15565b610fa5576040517f08c379a00000000000000000000000000000000000000000000000000000000081526004018080602001828103825260318152602001806133b56031913960400191505060405180910390fd5b610fb0838383611da1565b505050565b600061100882600160008673ffffffffffffffffffffffffffffffffffffffff1673ffffffffffffffffffffffffffffffffffffffff168152602001908152602001600020611fe490919063ffffffff16565b905092915050565b61102b8383836040518060200160405280600081525061152e565b505050565b600080611047836002611ffe90919063ffffffff16565b50905080915050919050565b60006110838260405180606001604052806029815260200161329960299139600261202a9092919063ffffffff16565b9050919050565b600c5481565b606060098054600181600116156101000203166002900480601f0160208091040260200160405190810160405280929190818152602001828054600181600116156101000203166002900480156111285780601f106110fd57610100808354040283529160200191611128565b820191906000526020600020905b81548152906001019060200180831161110b57829003601f168201915b5050505050905090565b60008073ffffffffffffffffffffffffffffffffffffffff168273ffffffffffffffffffffffffffffffffffffffff1614156111b9576040517f08c379a000000000000000000000000000000000000000000000000000000000815260040180806020018281038252602a81526020018061326f602a913960400191505060405180910390fd5b611200600160008473ffffffffffffffffffffffffffffffffffffffff1673ffffffffffffffffffffffffffffffffffffffff168152602001908152602001600020612049565b9050919050565b7f000000000000000000000000000000000000000000000000000000000000000073ffffffffffffffffffffffffffffffffffffffff163373ffffffffffffffffffffffffffffffffffffffff16146112c8576040517f08c379a000000000000000000000000000000000000000000000000000000000815260040180806020018281038252601f8152602001807f4f6e6c7920565246436f6f7264696e61746f722063616e2066756c66696c6c0081525060200191505060405180910390fd5b6112d2828261205e565b5050565b606060078054600181600116156101000203166002900480601f01602080910402602001604051908101604052809291908181526020018280546001816001161561010002031660029004801561136e5780601f106113435761010080835404028352916020019161136e565b820191906000526020600020905b81548152906001019060200180831161135157829003601f168201915b5050505050905090565b611380611954565b73ffffffffffffffffffffffffffffffffffffffff168273ffffffffffffffffffffffffffffffffffffffff161415611421576040517f08c379a00000000000000000000000000000000000000000000000000000000081526004018080602001828103825260198152602001807f4552433732313a20617070726f766520746f2063616c6c65720000000000000081525060200191505060405180910390fd5b806005600061142e611954565b73ffffffffffffffffffffffffffffffffffffffff1673ffffffffffffffffffffffffffffffffffffffff16815260200190815260200160002060008473ffffffffffffffffffffffffffffffffffffffff1673ffffffffffffffffffffffffffffffffffffffff16815260200190815260200160002060006101000a81548160ff0219169083151502179055508173ffffffffffffffffffffffffffffffffffffffff166114db611954565b73ffffffffffffffffffffffffffffffffffffffff167f17307eab39ab6107e8899845ad3d59bd9653f200f220920489ca2b5937696c318360405180821515815260200191505060405180910390a35050565b61153f611539611954565b83611a15565b611594576040517f08c379a00000000000000000000000000000000000000000000000000000000081526004018080602001828103825260318152602001806133b56031913960400191505060405180910390fd5b6115a08484848461214b565b50505050565b60606115b182611937565b611606576040517f08c379a000000000000000000000000000000000000000000000000000000000815260040180806020018281038252602f815260200180613365602f913960400191505060405180910390fd5b6000600860008481526020019081526020016000208054600181600116156101000203166002900480601f0160208091040260200160405190810160405280929190818152602001828054600181600116156101000203166002900480156116af5780601f10611684576101008083540402835291602001916116af565b820191906000526020600020905b81548152906001019060200180831161169257829003601f168201915b5050505050905060006116c0611090565b90506000815114156116d6578192505050611872565b6000825111156117a75780826040516020018083805190602001908083835b6020831061171857805182526020820191506020810190506020830392506116f5565b6001836020036101000a03801982511681845116808217855250505050505090500182805190602001908083835b602083106117695780518252602082019150602081019050602083039250611746565b6001836020036101000a0380198251168184511680821785525050505050509050019250505060405160208183030381529060405292505050611872565b806117b1856121bd565b6040516020018083805190602001908083835b602083106117e757805182526020820191506020810190506020830392506117c4565b6001836020036101000a03801982511681845116808217855250505050505090500182805190602001908083835b602083106118385780518252602082019150602081019050602083039250611815565b6001836020036101000a03801982511681845116808217855250505050505090500192505050604051602081830303815290604052925050505b919050565b600e6020528060005260406000206000915054906101000a900460ff1681565b600b5481565b600d5481565b6000600560008473ffffffffffffffffffffffffffffffffffffffff1673ffffffffffffffffffffffffffffffffffffffff16815260200190815260200160002060008373ffffffffffffffffffffffffffffffffffffffff1673ffffffffffffffffffffffffffffffffffffffff16815260200190815260200160002060009054906101000a900460ff16905092915050565b600061194d82600261230490919063ffffffff16565b9050919050565b600033905090565b816004600083815260200190815260200160002060006101000a81548173ffffffffffffffffffffffffffffffffffffffff021916908373ffffffffffffffffffffffffffffffffffffffff160217905550808273ffffffffffffffffffffffffffffffffffffffff166119cf83611053565b73ffffffffffffffffffffffffffffffffffffffff167f8c5be1e5ebec7d5bd14f71427d1e84f3dd0314c0f7b2291e5b200ac8c7c3b92560405160405180910390a45050565b6000611a2082611937565b611a75576040517f08c379a000000000000000000000000000000000000000000000000000000000815260040180806020018281038252602c81526020018061320b602c913960400191505060405180910390fd5b6000611a8083611053565b90508073ffffffffffffffffffffffffffffffffffffffff168473ffffffffffffffffffffffffffffffffffffffff161480611aef57508373ffffffffffffffffffffffffffffffffffffffff16611ad784610bf1565b73ffffffffffffffffffffffffffffffffffffffff16145b80611b005750611aff81856118a3565b5b91505092915050565b611b1282611937565b611b67576040517f08c379a000000000000000000000000000000000000000000000000000000000815260040180806020018281038252602c815260200180613310602c913960400191505060405180910390fd5b80600860008481526020019081526020016000209080519060200190611b8e92919061309a565b505050565b6000611ba18260000161231e565b9050919050565b60007f000000000000000000000000000000000000000000000000000000000000000073ffffffffffffffffffffffffffffffffffffffff16634000aea07f00000000000000000000000000000000000000000000000000000000000000008486600060405160200180838152602001828152602001925050506040516020818303038152906040526040518463ffffffff1660e01b8152600401808473ffffffffffffffffffffffffffffffffffffffff16815260200183815260200180602001828103825283818151815260200191508051906020019080838360005b83811015611ca2578082015181840152602081019050611c87565b50505050905090810190601f168015611ccf5780820380516001836020036101000a031916815260200191505b50945050505050602060405180830381600087803b158015611cf057600080fd5b505af1158015611d04573d6000803e3d6000fd5b505050506040513d6020811015611d1a57600080fd5b8101908080519060200190929190505050506000611d4e84600030600a60008981526020019081526020016000205461232f565b9050611d776001600a60008781526020019081526020016000205461239390919063ffffffff16565b600a600086815260200190815260200160002081905550611d98848261241b565b91505092915050565b8273ffffffffffffffffffffffffffffffffffffffff16611dc182611053565b73ffffffffffffffffffffffffffffffffffffffff1614611e2d576040517f08c379a000000000000000000000000000000000000000000000000000000000815260040180806020018281038252602981526020018061333c6029913960400191505060405180910390fd5b600073ffffffffffffffffffffffffffffffffffffffff168273ffffffffffffffffffffffffffffffffffffffff161415611eb3576040517f08c379a00000000000000000000000000000000000000000000000000000000081526004018080602001828103825260248152602001806131c16024913960400191505060405180910390fd5b611ebe838383612454565b611ec960008261195c565b611f1a81600160008673ffffffffffffffffffffffffffffffffffffffff1673ffffffffffffffffffffffffffffffffffffffff16815260200190815260200160002061245990919063ffffffff16565b50611f6c81600160008573ffffffffffffffffffffffffffffffffffffffff1673ffffffffffffffffffffffffffffffffffffffff16815260200190815260200160002061247390919063ffffffff16565b50611f838183600261248d9092919063ffffffff16565b50808273ffffffffffffffffffffffffffffffffffffffff168473ffffffffffffffffffffffffffffffffffffffff167fddf252ad1be2c89b69c2b068fc378daa952ba7f163c4a11628f55a4df523b3ef60405160405180910390a4505050565b6000611ff383600001836124c2565b60001c905092915050565b6000806000806120118660000186612545565b915091508160001c8160001c9350935050509250929050565b600061203d846000018460001b846125de565b60001c90509392505050565b6000612057826000016126d4565b9050919050565b60006003828161206a57fe5b06600281111561207657fe5b90506000600b54905081600e600083815260200190815260200160002060006101000a81548160ff021916908360028111156120ae57fe5b0217905550807f6e53fea935f7abd0efe0a926f787fbd8be126bf1cea2c12627e19cdfe3c4776283604051808260028111156120e657fe5b815260200191505060405180910390a26000600f600086815260200190815260200160002060009054906101000a900473ffffffffffffffffffffffffffffffffffffffff16905061213881836126e5565b6001600b5401600b819055505050505050565b612156848484611da1565b61216284848484612703565b6121b7576040517f08c379a00000000000000000000000000000000000000000000000000000000081526004018080602001828103825260328152602001806131686032913960400191505060405180910390fd5b50505050565b60606000821415612205576040518060400160405280600181526020017f300000000000000000000000000000000000000000000000000000000000000081525090506122ff565b600082905060005b6000821461222f578080600101915050600a828161222757fe5b04915061220d565b60008167ffffffffffffffff8111801561224857600080fd5b506040519080825280601f01601f19166020018201604052801561227b5781602001600182028036833780820191505090505b50905060006001830390508593505b600084146122f757600a848161229c57fe5b0660300160f81b828280600190039350815181106122b657fe5b60200101907effffffffffffffffffffffffffffffffffffffffffffffffffffffffffffff1916908160001a905350600a84816122ef57fe5b04935061228a565b819450505050505b919050565b6000612316836000018360001b61291c565b905092915050565b600081600001805490509050919050565b600084848484604051602001808581526020018481526020018373ffffffffffffffffffffffffffffffffffffffff1681526020018281526020019450505050506040516020818303038152906040528051906020012060001c9050949350505050565b600080828401905083811015612411576040517f08c379a000000000000000000000000000000000000000000000000000000000815260040180806020018281038252601b8152602001807f536166654d6174683a206164646974696f6e206f766572666c6f77000000000081525060200191505060405180910390fd5b8091505092915050565b60008282604051602001808381526020018281526020019250505060405160208183030381529060405280519060200120905092915050565b505050565b600061246b836000018360001b61293f565b905092915050565b6000612485836000018360001b612a27565b905092915050565b60006124b9846000018460001b8473ffffffffffffffffffffffffffffffffffffffff1660001b612a97565b90509392505050565b600081836000018054905011612523576040517f08c379a00000000000000000000000000000000000000000000000000000000081526004018080602001828103825260228152602001806131466022913960400191505060405180910390fd5b82600001828154811061253257fe5b9060005260206000200154905092915050565b600080828460000180549050116125a7576040517f08c379a00000000000000000000000000000000000000000000000000000000081526004018080602001828103825260228152602001806132c26022913960400191505060405180910390fd5b60008460000184815481106125b857fe5b906000526020600020906002020190508060000154816001015492509250509250929050565b600080846001016000858152602001908152602001600020549050600081141583906126a5576040517f08c379a00000000000000000000000000000000000000000000000000000000081526004018080602001828103825283818151815260200191508051906020019080838360005b8381101561266a57808201518184015260208101905061264f565b50505050905090810190601f1680156126975780820380516001836020036101000a031916815260200191505b509250505060405180910390fd5b508460000160018203815481106126b857fe5b9060005260206000209060020201600101549150509392505050565b600081600001805490509050919050565b6126ff828260405180602001604052806000815250612b73565b5050565b60006127248473ffffffffffffffffffffffffffffffffffffffff16612be4565b6127315760019050612914565b600061289b63150b7a0260e01b612746611954565b888787604051602401808573ffffffffffffffffffffffffffffffffffffffff1681526020018473ffffffffffffffffffffffffffffffffffffffff16815260200183815260200180602001828103825283818151815260200191508051906020019080838360005b838110156127ca5780820151818401526020810190506127af565b50505050905090810190601f1680156127f75780820380516001836020036101000a031916815260200191505b5095505050505050604051602081830303815290604052907bffffffffffffffffffffffffffffffffffffffffffffffffffffffff19166020820180517bffffffffffffffffffffffffffffffffffffffffffffffffffffffff8381831617835250505050604051806060016040528060328152602001613168603291398773ffffffffffffffffffffffffffffffffffffffff16612bf79092919063ffffffff16565b905060008180602001905160208110156128b457600080fd5b8101908080519060200190929190505050905063150b7a0260e01b7bffffffffffffffffffffffffffffffffffffffffffffffffffffffff1916817bffffffffffffffffffffffffffffffffffffffffffffffffffffffff191614925050505b949350505050565b600080836001016000848152602001908152602001600020541415905092915050565b60008083600101600084815260200190815260200160002054905060008114612a1b576000600182039050600060018660000180549050039050600086600001828154811061298a57fe5b90600052602060002001549050808760000184815481106129a757fe5b90600052602060002001819055506001830187600101600083815260200190815260200160002081905550866000018054806129df57fe5b60019003818190600052602060002001600090559055866001016000878152602001908152602001600020600090556001945050505050612a21565b60009150505b92915050565b6000612a338383612c0f565b612a8c578260000182908060018154018082558091505060019003906000526020600020016000909190919091505582600001805490508360010160008481526020019081526020016000208190555060019050612a91565b600090505b92915050565b6000808460010160008581526020019081526020016000205490506000811415612b3e57846000016040518060400160405280868152602001858152509080600181540180825580915050600190039060005260206000209060020201600090919091909150600082015181600001556020820151816001015550508460000180549050856001016000868152602001908152602001600020819055506001915050612b6c565b82856000016001830381548110612b5157fe5b90600052602060002090600202016001018190555060009150505b9392505050565b612b7d8383612c32565b612b8a6000848484612703565b612bdf576040517f08c379a00000000000000000000000000000000000000000000000000000000081526004018080602001828103825260328152602001806131686032913960400191505060405180910390fd5b505050565b600080823b905060008111915050919050565b6060612c068484600085612e26565b90509392505050565b600080836001016000848152602001908152602001600020541415905092915050565b600073ffffffffffffffffffffffffffffffffffffffff168273ffffffffffffffffffffffffffffffffffffffff161415612cd5576040517f08c379a00000000000000000000000000000000000000000000000000000000081526004018080602001828103825260208152602001807f4552433732313a206d696e7420746f20746865207a65726f206164647265737381525060200191505060405180910390fd5b612cde81611937565b15612d51576040517f08c379a000000000000000000000000000000000000000000000000000000000815260040180806020018281038252601c8152602001807f4552433732313a20746f6b656e20616c7265616479206d696e7465640000000081525060200191505060405180910390fd5b612d5d60008383612454565b612dae81600160008573ffffffffffffffffffffffffffffffffffffffff1673ffffffffffffffffffffffffffffffffffffffff16815260200190815260200160002061247390919063ffffffff16565b50612dc58183600261248d9092919063ffffffff16565b50808273ffffffffffffffffffffffffffffffffffffffff16600073ffffffffffffffffffffffffffffffffffffffff167fddf252ad1be2c89b69c2b068fc378daa952ba7f163c4a11628f55a4df523b3ef60405160405180910390a45050565b606082471015612e81576040517f08c379a00000000000000000000000000000000000000000000000000000000081526004018080602001828103825260268152602001806131e56026913960400191505060405180910390fd5b612e8a85612be4565b612efc576040517f08c379a000000000000000000000000000000000000000000000000000000000815260040180806020018281038252601d8152602001807f416464726573733a2063616c6c20746f206e6f6e2d636f6e747261637400000081525060200191505060405180910390fd5b6000808673ffffffffffffffffffffffffffffffffffffffff1685876040518082805190602001908083835b60208310612f4b5780518252602082019150602081019050602083039250612f28565b6001836020036101000a03801982511681845116808217855250505050505090500191505060006040518083038185875af1925050503d8060008114612fad576040519150601f19603f3d011682016040523d82523d6000602084013e612fb2565b606091505b5091509150612fc2828286612fce565b92505050949350505050565b60608315612fde57829050613093565b600083511115612ff15782518084602001fd5b816040517f08c379a00000000000000000000000000000000000000000000000000000000081526004018080602001828103825283818151815260200191508051906020019080838360005b8381101561305857808201518184015260208101905061303d565b50505050905090810190601f1680156130855780820380516001836020036101000a031916815260200191505b509250505060405180910390fd5b9392505050565b828054600181600116156101000203166002900490600052602060002090601f0160209004810192826130d05760008555613117565b82601f106130e957805160ff1916838001178555613117565b82800160010185558215613117579182015b828111156131165782518255916020019190600101906130fb565b5b5090506131249190613128565b5090565b5b80821115613141576000816000905550600101613129565b509056fe456e756d657261626c655365743a20696e646578206f7574206f6620626f756e64734552433732313a207472616e7366657220746f206e6f6e20455243373231526563656976657220696d706c656d656e7465724552433732313a2063616c6c6572206973206e6f74206f776e6572206e6f20617070726f7665644552433732313a207472616e7366657220746f20746865207a65726f2061646472657373416464726573733a20696e73756666696369656e742062616c616e636520666f722063616c6c4552433732313a206f70657261746f7220717565727920666f72206e6f6e6578697374656e7420746f6b656e4552433732313a20617070726f76652063616c6c6572206973206e6f74206f776e6572206e6f7220617070726f76656420666f7220616c6c4552433732313a2062616c616e636520717565727920666f7220746865207a65726f20616464726573734552433732313a206f776e657220717565727920666f72206e6f6e6578697374656e7420746f6b656e456e756d657261626c654d61703a20696e646578206f7574206f6620626f756e64734552433732313a20617070726f76656420717565727920666f72206e6f6e6578697374656e7420746f6b656e4552433732314d657461646174613a2055524920736574206f66206e6f6e6578697374656e7420746f6b656e4552433732313a207472616e73666572206f6620746f6b656e2074686174206973206e6f74206f776e4552433732314d657461646174613a2055524920717565727920666f72206e6f6e6578697374656e7420746f6b656e4552433732313a20617070726f76616c20746f2063757272656e74206f776e65724552433732313a207472616e736665722063616c6c6572206973206e6f74206f776e6572206e6f7220617070726f766564a26469706673582212204892fc5c54eb3c8acbe3e3d56e588a091e51a303698df21a56e7a6e92244027864736f6c63430007060033",
  "devdoc": {
    "kind": "dev",
    "methods": {
      "approve(address,uint256)": {
        "details": "See {IERC721-approve}."
      },
      "balanceOf(address)": {
        "details": "See {IERC721-balanceOf}."
      },
      "baseURI()": {
        "details": "Returns the base URI set via {_setBaseURI}. This will be automatically added as a prefix in {tokenURI} to each token's URI, or to the token ID if no specific URI is set for that token ID."
      },
      "getApproved(uint256)": {
        "details": "See {IERC721-getApproved}."
      },
      "isApprovedForAll(address,address)": {
        "details": "See {IERC721-isApprovedForAll}."
      },
      "name()": {
        "details": "See {IERC721Metadata-name}."
      },
      "ownerOf(uint256)": {
        "details": "See {IERC721-ownerOf}."
      },
      "safeTransferFrom(address,address,uint256)": {
        "details": "See {IERC721-safeTransferFrom}."
      },
      "safeTransferFrom(address,address,uint256,bytes)": {
        "details": "See {IERC721-safeTransferFrom}."
      },
      "setApprovalForAll(address,bool)": {
        "details": "See {IERC721-setApprovalForAll}."
      },
      "supportsInterface(bytes4)": {
        "details": "See {IERC165-supportsInterface}. Time complexity O(1), guaranteed to always use less than 30 000 gas."
      },
      "symbol()": {
        "details": "See {IERC721Metadata-symbol}."
      },
      "tokenByIndex(uint256)": {
        "details": "See {IERC721Enumerable-tokenByIndex}."
      },
      "tokenOfOwnerByIndex(address,uint256)": {
        "details": "See {IERC721Enumerable-tokenOfOwnerByIndex}."
      },
      "tokenURI(uint256)": {
        "details": "See {IERC721Metadata-tokenURI}."
      },
      "totalSupply()": {
        "details": "See {IERC721Enumerable-totalSupply}."
      },
      "transferFrom(address,address,uint256)": {
        "details": "See {IERC721-transferFrom}."
      }
    },
    "version": 1
  },
  "userdoc": {
    "kind": "user",
    "methods": {},
    "version": 1
  },
  "storageLayout": {
    "storage": [
      {
        "astId": 422,
        "contract": "contracts/Collectible.sol:Collectible",
        "label": "_supportedInterfaces",
        "offset": 0,
        "slot": "0",
        "type": "t_mapping(t_bytes4,t_bool)"
      },
      {
        "astId": 878,
        "contract": "contracts/Collectible.sol:Collectible",
        "label": "_holderTokens",
        "offset": 0,
        "slot": "1",
        "type": "t_mapping(t_address,t_struct(UintSet)3244_storage)"
      },
      {
        "astId": 880,
        "contract": "contracts/Collectible.sol:Collectible",
        "label": "_tokenOwners",
        "offset": 0,
        "slot": "2",
        "type": "t_struct(UintToAddressMap)2621_storage"
      },
      {
        "astId": 884,
        "contract": "contracts/Collectible.sol:Collectible",
        "label": "_tokenApprovals",
        "offset": 0,
        "slot": "4",
        "type": "t_mapping(t_uint256,t_address)"
      },
      {
        "astId": 890,
        "contract": "contracts/Collectible.sol:Collectible",
        "label": "_operatorApprovals",
        "offset": 0,
        "slot": "5",
        "type": "t_mapping(t_address,t_mapping(t_address,t_bool))"
      },
      {
        "astId": 892,
        "contract": "contracts/Collectible.sol:Collectible",
        "label": "_name",
        "offset": 0,
        "slot": "6",
        "type": "t_string_storage"
      },
      {
        "astId": 894,
        "contract": "contracts/Collectible.sol:Collectible",
        "label": "_symbol",
        "offset": 0,
        "slot": "7",
        "type": "t_string_storage"
      },
      {
        "astId": 898,
        "contract": "contracts/Collectible.sol:Collectible",
        "label": "_tokenURIs",
        "offset": 0,
        "slot": "8",
        "type": "t_mapping(t_uint256,t_string_storage)"
      },
      {
        "astId": 900,
        "contract": "contracts/Collectible.sol:Collectible",
        "label": "_baseURI",
        "offset": 0,
        "slot": "9",
        "type": "t_string_storage"
      },
      {
        "astId": 83,
        "contract": "contracts/Collectible.sol:Collectible",
        "label": "nonces",
        "offset": 0,
        "slot": "10",
        "type": "t_mapping(t_bytes32,t_uint256)"
      },
      {
        "astId": 3436,
        "contract": "contracts/Collectible.sol:Collectible",
        "label": "tokenCounter",
        "offset": 0,
        "slot": "11",
        "type": "t_uint256"
      },
      {
        "astId": 3438,
        "contract": "contracts/Collectible.sol:Collectible",
        "label": "keyhash",
        "offset": 0,
        "slot": "12",
        "type": "t_bytes32"
      },
      {
        "astId": 3440,
        "contract": "contracts/Collectible.sol:Collectible",
        "label": "fee",
        "offset": 0,
        "slot": "13",
        "type": "t_uint256"
      },
      {
        "astId": 3448,
        "contract": "contracts/Collectible.sol:Collectible",
        "label": "tokenIdToBreed",
        "offset": 0,
        "slot": "14",
        "type": "t_mapping(t_uint256,t_enum(Breed)3444)"
      },
      {
        "astId": 3452,
        "contract": "contracts/Collectible.sol:Collectible",
        "label": "requestIdToSender",
        "offset": 0,
        "slot": "15",
        "type": "t_mapping(t_bytes32,t_address)"
      }
    ],
    "types": {
      "t_address": {
        "encoding": "inplace",
        "label": "address",
        "numberOfBytes": "20"
      },
      "t_array(t_bytes32)dyn_storage": {
        "base": "t_bytes32",
        "encoding": "dynamic_array",
        "label": "bytes32[]",
        "numberOfBytes": "32"
      },
      "t_array(t_struct(MapEntry)2295_storage)dyn_storage": {
        "base": "t_struct(MapEntry)2295_storage",
        "encoding": "dynamic_array",
        "label": "struct EnumerableMap.MapEntry[]",
        "numberOfBytes": "32"
      },
      "t_bool": {
        "encoding": "inplace",
        "label": "bool",
        "numberOfBytes": "1"
      },
      "t_bytes32": {
        "encoding": "inplace",
        "label": "bytes32",
        "numberOfBytes": "32"
      },
      "t_bytes4": {
        "encoding": "inplace",
        "label": "bytes4",
        "numberOfBytes": "4"
      },
      "t_enum(Breed)3444": {
        "encoding": "inplace",
        "label": "enum Collectible.Breed",
        "numberOfBytes": "1"
      },
      "t_mapping(t_address,t_bool)": {
        "encoding": "mapping",
        "key": "t_address",
        "label": "mapping(address => bool)",
        "numberOfBytes": "32",
        "value": "t_bool"
      },
      "t_mapping(t_address,t_mapping(t_address,t_bool))": {
        "encoding": "mapping",
        "key": "t_address",
        "label": "mapping(address => mapping(address => bool))",
        "numberOfBytes": "32",
        "value": "t_mapping(t_address,t_bool)"
      },
      "t_mapping(t_address,t_struct(UintSet)3244_storage)": {
        "encoding": "mapping",
        "key": "t_address",
        "label": "mapping(address => struct EnumerableSet.UintSet)",
        "numberOfBytes": "32",
        "value": "t_struct(UintSet)3244_storage"
      },
      "t_mapping(t_bytes32,t_address)": {
        "encoding": "mapping",
        "key": "t_bytes32",
        "label": "mapping(bytes32 => address)",
        "numberOfBytes": "32",
        "value": "t_address"
      },
      "t_mapping(t_bytes32,t_uint256)": {
        "encoding": "mapping",
        "key": "t_bytes32",
        "label": "mapping(bytes32 => uint256)",
        "numberOfBytes": "32",
        "value": "t_uint256"
      },
      "t_mapping(t_bytes4,t_bool)": {
        "encoding": "mapping",
        "key": "t_bytes4",
        "label": "mapping(bytes4 => bool)",
        "numberOfBytes": "32",
        "value": "t_bool"
      },
      "t_mapping(t_uint256,t_address)": {
        "encoding": "mapping",
        "key": "t_uint256",
        "label": "mapping(uint256 => address)",
        "numberOfBytes": "32",
        "value": "t_address"
      },
      "t_mapping(t_uint256,t_enum(Breed)3444)": {
        "encoding": "mapping",
        "key": "t_uint256",
        "label": "mapping(uint256 => enum Collectible.Breed)",
        "numberOfBytes": "32",
        "value": "t_enum(Breed)3444"
      },
      "t_mapping(t_uint256,t_string_storage)": {
        "encoding": "mapping",
        "key": "t_uint256",
        "label": "mapping(uint256 => string)",
        "numberOfBytes": "32",
        "value": "t_string_storage"
      },
      "t_string_storage": {
        "encoding": "bytes",
        "label": "string",
        "numberOfBytes": "32"
      },
      "t_struct(Map)2303_storage": {
        "encoding": "inplace",
        "label": "struct EnumerableMap.Map",
        "members": [
          {
            "astId": 2298,
            "contract": "contracts/Collectible.sol:Collectible",
            "label": "_entries",
            "offset": 0,
            "slot": "0",
            "type": "t_array(t_struct(MapEntry)2295_storage)dyn_storage"
          },
          {
            "astId": 2302,
            "contract": "contracts/Collectible.sol:Collectible",
            "label": "_indexes",
            "offset": 0,
            "slot": "1",
            "type": "t_mapping(t_bytes32,t_uint256)"
          }
        ],
        "numberOfBytes": "64"
      },
      "t_struct(MapEntry)2295_storage": {
        "encoding": "inplace",
        "label": "struct EnumerableMap.MapEntry",
        "members": [
          {
            "astId": 2292,
            "contract": "contracts/Collectible.sol:Collectible",
            "label": "_key",
            "offset": 0,
            "slot": "0",
            "type": "t_bytes32"
          },
          {
            "astId": 2294,
            "contract": "contracts/Collectible.sol:Collectible",
            "label": "_value",
            "offset": 0,
            "slot": "1",
            "type": "t_bytes32"
          }
        ],
        "numberOfBytes": "64"
      },
      "t_struct(Set)2858_storage": {
        "encoding": "inplace",
        "label": "struct EnumerableSet.Set",
        "members": [
          {
            "astId": 2853,
            "contract": "contracts/Collectible.sol:Collectible",
            "label": "_values",
            "offset": 0,
            "slot": "0",
            "type": "t_array(t_bytes32)dyn_storage"
          },
          {
            "astId": 2857,
            "contract": "contracts/Collectible.sol:Collectible",
            "label": "_indexes",
            "offset": 0,
            "slot": "1",
            "type": "t_mapping(t_bytes32,t_uint256)"
          }
        ],
        "numberOfBytes": "64"
      },
      "t_struct(UintSet)3244_storage": {
        "encoding": "inplace",
        "label": "struct EnumerableSet.UintSet",
        "members": [
          {
            "astId": 3243,
            "contract": "contracts/Collectible.sol:Collectible",
            "label": "_inner",
            "offset": 0,
            "slot": "0",
            "type": "t_struct(Set)2858_storage"
          }
        ],
        "numberOfBytes": "64"
      },
      "t_struct(UintToAddressMap)2621_storage": {
        "encoding": "inplace",
        "label": "struct EnumerableMap.UintToAddressMap",
        "members": [
          {
            "astId": 2620,
            "contract": "contracts/Collectible.sol:Collectible",
            "label": "_inner",
            "offset": 0,
            "slot": "0",
            "type": "t_struct(Map)2303_storage"
          }
        ],
        "numberOfBytes": "64"
      },
      "t_uint256": {
        "encoding": "inplace",
        "label": "uint256",
        "numberOfBytes": "32"
      }
    }
  }
}